{
  "_format": "hh-sol-artifact-1",
  "contractName": "Create",
  "sourceName": "contracts/votingContract.sol",
  "abi": [
    {
      "inputs": [],
      "stateMutability": "nonpayable",
      "type": "constructor"
    },
    {
      "anonymous": false,
      "inputs": [
        {
          "indexed": true,
          "internalType": "uint256",
          "name": "candidateId",
          "type": "uint256"
        },
        {
          "indexed": false,
          "internalType": "string",
          "name": "age",
          "type": "string"
        },
        {
          "indexed": false,
          "internalType": "string",
          "name": "name",
          "type": "string"
        },
        {
          "indexed": false,
          "internalType": "string",
          "name": "image",
          "type": "string"
        },
        {
          "indexed": false,
          "internalType": "uint256",
          "name": "voteCount",
          "type": "uint256"
        },
        {
          "indexed": false,
          "internalType": "address",
          "name": "_address",
          "type": "address"
        },
        {
          "indexed": false,
          "internalType": "string",
          "name": "ipfs",
          "type": "string"
        }
      ],
      "name": "CandidateCreate",
      "type": "event"
    },
    {
      "anonymous": false,
      "inputs": [
        {
          "indexed": true,
          "internalType": "uint256",
          "name": "voter_voterId",
          "type": "uint256"
        },
        {
          "indexed": false,
          "internalType": "string",
          "name": "voter_name",
          "type": "string"
        },
        {
          "indexed": false,
          "internalType": "string",
          "name": "voter_image",
          "type": "string"
        },
        {
          "indexed": false,
          "internalType": "address",
          "name": "voter_address",
          "type": "address"
        },
        {
          "indexed": false,
          "internalType": "uint256",
          "name": "voter_allowed",
          "type": "uint256"
        },
        {
          "indexed": false,
          "internalType": "bool",
          "name": "voter_voted",
          "type": "bool"
        },
        {
          "indexed": false,
          "internalType": "uint256",
          "name": "voter_vote",
          "type": "uint256"
        },
        {
          "indexed": false,
          "internalType": "string",
          "name": "ipfs",
          "type": "string"
        }
      ],
      "name": "voterCreated",
      "type": "event"
    },
    {
      "inputs": [],
      "name": "_candidateId",
      "outputs": [
        {
          "internalType": "uint256",
          "name": "_value",
          "type": "uint256"
        }
      ],
      "stateMutability": "view",
      "type": "function"
    },
    {
      "inputs": [],
      "name": "_voterId",
      "outputs": [
        {
          "internalType": "uint256",
          "name": "_value",
          "type": "uint256"
        }
      ],
      "stateMutability": "view",
      "type": "function"
    },
    {
      "inputs": [
        {
          "internalType": "uint256",
          "name": "",
          "type": "uint256"
        }
      ],
      "name": "candidateAddress",
      "outputs": [
        {
          "internalType": "address",
          "name": "",
          "type": "address"
        }
      ],
      "stateMutability": "view",
      "type": "function"
    },
    {
      "inputs": [
        {
          "internalType": "address",
          "name": "",
          "type": "address"
        }
      ],
      "name": "candidates",
      "outputs": [
        {
          "internalType": "uint256",
          "name": "candidateId",
          "type": "uint256"
        },
        {
          "internalType": "string",
          "name": "age",
          "type": "string"
        },
        {
          "internalType": "string",
          "name": "name",
          "type": "string"
        },
        {
          "internalType": "string",
          "name": "image",
          "type": "string"
        },
        {
          "internalType": "uint256",
          "name": "voteCount",
          "type": "uint256"
        },
        {
          "internalType": "address",
          "name": "_address",
          "type": "address"
        },
        {
          "internalType": "string",
          "name": "ipfs",
          "type": "string"
        }
      ],
      "stateMutability": "view",
      "type": "function"
    },
    {
      "inputs": [],
      "name": "getCandidate",
      "outputs": [
        {
          "internalType": "address[]",
          "name": "",
          "type": "address[]"
        }
      ],
      "stateMutability": "view",
      "type": "function"
    },
    {
      "inputs": [
        {
          "internalType": "address",
          "name": "_address",
          "type": "address"
        }
      ],
      "name": "getCandidateData",
      "outputs": [
        {
          "internalType": "string",
          "name": "",
          "type": "string"
        },
        {
          "internalType": "string",
          "name": "",
          "type": "string"
        },
        {
          "internalType": "uint256",
          "name": "",
          "type": "uint256"
        },
        {
          "internalType": "string",
          "name": "",
          "type": "string"
        },
        {
          "internalType": "uint256",
          "name": "",
          "type": "uint256"
        },
        {
          "internalType": "string",
          "name": "",
          "type": "string"
        },
        {
          "internalType": "address",
          "name": "",
          "type": "address"
        }
      ],
      "stateMutability": "view",
      "type": "function"
    },
    {
      "inputs": [],
      "name": "getCandidateLength",
      "outputs": [
        {
          "internalType": "uint256",
          "name": "",
          "type": "uint256"
        }
      ],
      "stateMutability": "view",
      "type": "function"
    },
    {
      "inputs": [],
      "name": "getVotedVoterList",
      "outputs": [
        {
          "internalType": "address[]",
          "name": "",
          "type": "address[]"
        }
      ],
      "stateMutability": "view",
      "type": "function"
    },
    {
      "inputs": [
        {
          "internalType": "address",
          "name": "_address",
          "type": "address"
        }
      ],
      "name": "getVoterData",
      "outputs": [
        {
          "internalType": "uint256",
          "name": "",
          "type": "uint256"
        },
        {
          "internalType": "string",
          "name": "",
          "type": "string"
        },
        {
          "internalType": "string",
          "name": "",
          "type": "string"
        },
        {
          "internalType": "address",
          "name": "",
          "type": "address"
        },
        {
          "internalType": "string",
          "name": "",
          "type": "string"
        },
        {
          "internalType": "uint256",
          "name": "",
          "type": "uint256"
        },
        {
          "internalType": "bool",
          "name": "",
          "type": "bool"
        }
      ],
      "stateMutability": "view",
      "type": "function"
    },
    {
      "inputs": [],
      "name": "getVoterLength",
      "outputs": [
        {
          "internalType": "uint256",
          "name": "",
          "type": "uint256"
        }
      ],
      "stateMutability": "view",
      "type": "function"
    },
    {
      "inputs": [],
      "name": "getVoterList",
      "outputs": [
        {
          "internalType": "address[]",
          "name": "",
          "type": "address[]"
        }
      ],
      "stateMutability": "view",
      "type": "function"
    },
    {
      "inputs": [
        {
          "internalType": "address",
          "name": "_address",
          "type": "address"
        },
        {
          "internalType": "string",
          "name": "_age",
          "type": "string"
        },
        {
          "internalType": "string",
          "name": "_name",
          "type": "string"
        },
        {
          "internalType": "string",
          "name": "_image",
          "type": "string"
        },
        {
          "internalType": "string",
          "name": "_ipfs",
          "type": "string"
        }
      ],
      "name": "setCandidate",
      "outputs": [],
      "stateMutability": "nonpayable",
      "type": "function"
    },
    {
      "inputs": [
        {
          "internalType": "address",
          "name": "_candidateAddress",
          "type": "address"
        },
        {
          "internalType": "uint256",
          "name": "_candidateVoteId",
          "type": "uint256"
        }
      ],
      "name": "vote",
      "outputs": [],
      "stateMutability": "nonpayable",
      "type": "function"
    },
    {
      "inputs": [
        {
          "internalType": "uint256",
          "name": "",
          "type": "uint256"
        }
      ],
      "name": "votedVoters",
      "outputs": [
        {
          "internalType": "address",
          "name": "",
          "type": "address"
        }
      ],
      "stateMutability": "view",
      "type": "function"
    },
    {
      "inputs": [
        {
          "internalType": "address",
          "name": "_address",
          "type": "address"
        },
        {
          "internalType": "string",
          "name": "_name",
          "type": "string"
        },
        {
          "internalType": "string",
          "name": "_image",
          "type": "string"
        },
        {
          "internalType": "string",
          "name": "_ipfs",
          "type": "string"
        }
      ],
      "name": "voterRight",
      "outputs": [],
      "stateMutability": "nonpayable",
      "type": "function"
    },
    {
      "inputs": [
        {
          "internalType": "address",
          "name": "",
          "type": "address"
        }
      ],
      "name": "voters",
      "outputs": [
        {
          "internalType": "uint256",
          "name": "voter_voterId",
          "type": "uint256"
        },
        {
          "internalType": "string",
          "name": "voter_name",
          "type": "string"
        },
        {
          "internalType": "string",
          "name": "voter_image",
          "type": "string"
        },
        {
          "internalType": "address",
          "name": "voter_address",
          "type": "address"
        },
        {
          "internalType": "uint256",
          "name": "voter_allowed",
          "type": "uint256"
        },
        {
          "internalType": "bool",
          "name": "voter_voted",
          "type": "bool"
        },
        {
          "internalType": "uint256",
          "name": "voter_vote",
          "type": "uint256"
        },
        {
          "internalType": "string",
          "name": "voter_ipfs",
          "type": "string"
        }
      ],
      "stateMutability": "view",
      "type": "function"
    },
    {
      "inputs": [
        {
          "internalType": "uint256",
          "name": "",
          "type": "uint256"
        }
      ],
      "name": "votersAddress",
      "outputs": [
        {
          "internalType": "address",
          "name": "",
          "type": "address"
        }
      ],
      "stateMutability": "view",
      "type": "function"
    },
    {
      "inputs": [],
      "name": "votingOrganizer",
      "outputs": [
        {
          "internalType": "address",
          "name": "",
          "type": "address"
        }
      ],
      "stateMutability": "view",
      "type": "function"
    }
  ],
  "bytecode": "0x608060405234801561001057600080fd5b5033600260006101000a81548173ffffffffffffffffffffffffffffffffffffffff021916908373ffffffffffffffffffffffffffffffffffffffff160217905550612814806100616000396000f3fe608060405234801561001057600080fd5b50600436106101165760003560e01c80638ab66a90116100a2578063a738896711610071578063a738896714610334578063b28d92ae14610352578063b9be315214610370578063c91ec7121461038e578063f7522a83146103aa57610116565b80638ab66a90146102735780638e945685146102a95780638fb4cd80146102c7578063a3ec138d146102fd57610116565b806343242daa116100e957806343242daa146101bb5780635cc48aa7146101eb5780635f74bbde1461020957806370218b85146102255780637831ffb31461024357610116565b80630361419e1461011b57806305ad45a4146101375780632a466ac7146101555780633a88251a1461018b575b600080fd5b61013560048036038101906101309190611b7b565b6103c8565b005b61013f610640565b60405161014c9190611c4f565b60405180910390f35b61016f600480360381019061016a9190611c6a565b61064d565b6040516101829796959493929190611d25565b60405180910390f35b6101a560048036038101906101a09190611ddc565b610a94565b6040516101b29190611e09565b60405180910390f35b6101d560048036038101906101d09190611ddc565b610ad3565b6040516101e29190611e09565b60405180910390f35b6101f3610b12565b6040516102009190611e09565b60405180910390f35b610223600480360381019061021e9190611e24565b610b38565b005b61022d610cff565b60405161023a9190611f22565b60405180910390f35b61025d60048036038101906102589190611ddc565b610d8d565b60405161026a9190611e09565b60405180910390f35b61028d60048036038101906102889190611c6a565b610dcc565b6040516102a09796959493929190611f44565b60405180910390f35b6102b161104e565b6040516102be9190611f22565b60405180910390f35b6102e160048036038101906102dc9190611c6a565b6110dc565b6040516102f49796959493929190611fea565b60405180910390f35b61031760048036038101906103129190611c6a565b6114a4565b60405161032b98979695949392919061206e565b60405180910390f35b61033c6116b1565b6040516103499190611c4f565b60405180910390f35b61035a6116bd565b6040516103679190611f22565b60405180910390f35b61037861174b565b6040516103859190611c4f565b60405180910390f35b6103a860048036038101906103a39190612101565b611757565b005b6103b2611992565b6040516103bf9190611c4f565b60405180910390f35b3373ffffffffffffffffffffffffffffffffffffffff16600260009054906101000a900473ffffffffffffffffffffffffffffffffffffffff1673ffffffffffffffffffffffffffffffffffffffff1614610458576040517f08c379a000000000000000000000000000000000000000000000000000000000815260040161044f90612238565b60405180910390fd5b610462600061199f565b600061046e60006119b5565b90506000600760008773ffffffffffffffffffffffffffffffffffffffff1673ffffffffffffffffffffffffffffffffffffffff168152602001908152602001600020905060008160040154146104c457600080fd5b60018160040181905550848160010190816104df9190612464565b50838160020190816104f19190612464565b50858160030160006101000a81548173ffffffffffffffffffffffffffffffffffffffff021916908373ffffffffffffffffffffffffffffffffffffffff1602179055508181600001819055506103e8816006018190555060008160050160006101000a81548160ff021916908315150217905550828160070190816105779190612464565b506006869080600181540180825580915050600190039060005260206000200160009091909190916101000a81548173ffffffffffffffffffffffffffffffffffffffff021916908373ffffffffffffffffffffffffffffffffffffffff160217905550817fa82760a4fb77b1af9728c15d96987c3f10b4f156d752048393e8518ae42a4a6e86868985600401548660050160009054906101000a900460ff1687600601548a6040516106309796959493929190612536565b60405180910390a2505050505050565b6000600680549050905090565b60608060006060600060606000600460008973ffffffffffffffffffffffffffffffffffffffff1673ffffffffffffffffffffffffffffffffffffffff168152602001908152602001600020600101600460008a73ffffffffffffffffffffffffffffffffffffffff1673ffffffffffffffffffffffffffffffffffffffff168152602001908152602001600020600201600460008b73ffffffffffffffffffffffffffffffffffffffff1673ffffffffffffffffffffffffffffffffffffffff16815260200190815260200160002060000154600460008c73ffffffffffffffffffffffffffffffffffffffff1673ffffffffffffffffffffffffffffffffffffffff168152602001908152602001600020600301600460008d73ffffffffffffffffffffffffffffffffffffffff1673ffffffffffffffffffffffffffffffffffffffff16815260200190815260200160002060040154600460008e73ffffffffffffffffffffffffffffffffffffffff1673ffffffffffffffffffffffffffffffffffffffff168152602001908152602001600020600601600460008f73ffffffffffffffffffffffffffffffffffffffff1673ffffffffffffffffffffffffffffffffffffffff16815260200190815260200160002060050160009054906101000a900473ffffffffffffffffffffffffffffffffffffffff1686805461085790612287565b80601f016020809104026020016040519081016040528092919081815260200182805461088390612287565b80156108d05780601f106108a5576101008083540402835291602001916108d0565b820191906000526020600020905b8154815290600101906020018083116108b357829003601f168201915b505050505096508580546108e390612287565b80601f016020809104026020016040519081016040528092919081815260200182805461090f90612287565b801561095c5780601f106109315761010080835404028352916020019161095c565b820191906000526020600020905b81548152906001019060200180831161093f57829003601f168201915b5050505050955083805461096f90612287565b80601f016020809104026020016040519081016040528092919081815260200182805461099b90612287565b80156109e85780601f106109bd576101008083540402835291602001916109e8565b820191906000526020600020905b8154815290600101906020018083116109cb57829003601f168201915b505050505093508180546109fb90612287565b80601f0160208091040260200160405190810160405280929190818152602001828054610a2790612287565b8015610a745780601f10610a4957610100808354040283529160200191610a74565b820191906000526020600020905b815481529060010190602001808311610a5757829003601f168201915b505050505091509650965096509650965096509650919395979092949650565b60038181548110610aa457600080fd5b906000526020600020016000915054906101000a900473ffffffffffffffffffffffffffffffffffffffff1681565b60068181548110610ae357600080fd5b906000526020600020016000915054906101000a900473ffffffffffffffffffffffffffffffffffffffff1681565b600260009054906101000a900473ffffffffffffffffffffffffffffffffffffffff1681565b6000600760003373ffffffffffffffffffffffffffffffffffffffff1673ffffffffffffffffffffffffffffffffffffffff16815260200190815260200160002090508060050160009054906101000a900460ff1615610bcd576040517f08c379a0000000000000000000000000000000000000000000000000000000008152600401610bc490612606565b60405180910390fd5b6000816004015403610c14576040517f08c379a0000000000000000000000000000000000000000000000000000000008152600401610c0b90612672565b60405180910390fd5b60018160050160006101000a81548160ff0219169083151502179055508181600601819055506005339080600181540180825580915050600190039060005260206000200160009091909190916101000a81548173ffffffffffffffffffffffffffffffffffffffff021916908373ffffffffffffffffffffffffffffffffffffffff1602179055508060040154600460008573ffffffffffffffffffffffffffffffffffffffff1673ffffffffffffffffffffffffffffffffffffffff1681526020019081526020016000206004016000828254610cf391906126c1565b92505081905550505050565b60606003805480602002602001604051908101604052809291908181526020018280548015610d8357602002820191906000526020600020905b8160009054906101000a900473ffffffffffffffffffffffffffffffffffffffff1673ffffffffffffffffffffffffffffffffffffffff1681526020019060010190808311610d39575b5050505050905090565b60058181548110610d9d57600080fd5b906000526020600020016000915054906101000a900473ffffffffffffffffffffffffffffffffffffffff1681565b6004602052806000526040600020600091509050806000015490806001018054610df590612287565b80601f0160208091040260200160405190810160405280929190818152602001828054610e2190612287565b8015610e6e5780601f10610e4357610100808354040283529160200191610e6e565b820191906000526020600020905b815481529060010190602001808311610e5157829003601f168201915b505050505090806002018054610e8390612287565b80601f0160208091040260200160405190810160405280929190818152602001828054610eaf90612287565b8015610efc5780601f10610ed157610100808354040283529160200191610efc565b820191906000526020600020905b815481529060010190602001808311610edf57829003601f168201915b505050505090806003018054610f1190612287565b80601f0160208091040260200160405190810160405280929190818152602001828054610f3d90612287565b8015610f8a5780601f10610f5f57610100808354040283529160200191610f8a565b820191906000526020600020905b815481529060010190602001808311610f6d57829003601f168201915b5050505050908060040154908060050160009054906101000a900473ffffffffffffffffffffffffffffffffffffffff1690806006018054610fcb90612287565b80601f0160208091040260200160405190810160405280929190818152602001828054610ff790612287565b80156110445780601f1061101957610100808354040283529160200191611044565b820191906000526020600020905b81548152906001019060200180831161102757829003601f168201915b5050505050905087565b606060058054806020026020016040519081016040528092919081815260200182805480156110d257602002820191906000526020600020905b8160009054906101000a900473ffffffffffffffffffffffffffffffffffffffff1673ffffffffffffffffffffffffffffffffffffffff1681526020019060010190808311611088575b5050505050905090565b600060608060006060600080600760008973ffffffffffffffffffffffffffffffffffffffff1673ffffffffffffffffffffffffffffffffffffffff16815260200190815260200160002060000154600760008a73ffffffffffffffffffffffffffffffffffffffff1673ffffffffffffffffffffffffffffffffffffffff168152602001908152602001600020600101600760008b73ffffffffffffffffffffffffffffffffffffffff1673ffffffffffffffffffffffffffffffffffffffff168152602001908152602001600020600201600760008c73ffffffffffffffffffffffffffffffffffffffff1673ffffffffffffffffffffffffffffffffffffffff16815260200190815260200160002060030160009054906101000a900473ffffffffffffffffffffffffffffffffffffffff16600760008d73ffffffffffffffffffffffffffffffffffffffff1673ffffffffffffffffffffffffffffffffffffffff168152602001908152602001600020600701600760008e73ffffffffffffffffffffffffffffffffffffffff1673ffffffffffffffffffffffffffffffffffffffff16815260200190815260200160002060040154600760008f73ffffffffffffffffffffffffffffffffffffffff1673ffffffffffffffffffffffffffffffffffffffff16815260200190815260200160002060050160009054906101000a900460ff168580546112f390612287565b80601f016020809104026020016040519081016040528092919081815260200182805461131f90612287565b801561136c5780601f106113415761010080835404028352916020019161136c565b820191906000526020600020905b81548152906001019060200180831161134f57829003601f168201915b5050505050955084805461137f90612287565b80601f01602080910402602001604051908101604052809291908181526020018280546113ab90612287565b80156113f85780601f106113cd576101008083540402835291602001916113f8565b820191906000526020600020905b8154815290600101906020018083116113db57829003601f168201915b5050505050945082805461140b90612287565b80601f016020809104026020016040519081016040528092919081815260200182805461143790612287565b80156114845780601f1061145957610100808354040283529160200191611484565b820191906000526020600020905b81548152906001019060200180831161146757829003601f168201915b505050505092509650965096509650965096509650919395979092949650565b60076020528060005260406000206000915090508060000154908060010180546114cd90612287565b80601f01602080910402602001604051908101604052809291908181526020018280546114f990612287565b80156115465780601f1061151b57610100808354040283529160200191611546565b820191906000526020600020905b81548152906001019060200180831161152957829003601f168201915b50505050509080600201805461155b90612287565b80601f016020809104026020016040519081016040528092919081815260200182805461158790612287565b80156115d45780601f106115a9576101008083540402835291602001916115d4565b820191906000526020600020905b8154815290600101906020018083116115b757829003601f168201915b5050505050908060030160009054906101000a900473ffffffffffffffffffffffffffffffffffffffff16908060040154908060050160009054906101000a900460ff169080600601549080600701805461162e90612287565b80601f016020809104026020016040519081016040528092919081815260200182805461165a90612287565b80156116a75780601f1061167c576101008083540402835291602001916116a7565b820191906000526020600020905b81548152906001019060200180831161168a57829003601f168201915b5050505050905088565b60018060000154905081565b6060600680548060200260200160405190810160405280929190818152602001828054801561174157602002820191906000526020600020905b8160009054906101000a900473ffffffffffffffffffffffffffffffffffffffff1673ffffffffffffffffffffffffffffffffffffffff16815260200190600101908083116116f7575b5050505050905090565b60008060000154905081565b3373ffffffffffffffffffffffffffffffffffffffff16600260009054906101000a900473ffffffffffffffffffffffffffffffffffffffff1673ffffffffffffffffffffffffffffffffffffffff16146117e7576040517f08c379a00000000000000000000000000000000000000000000000000000000081526004016117de90612741565b60405180910390fd5b6117f1600161199f565b60006117fd60016119b5565b90506000600460008873ffffffffffffffffffffffffffffffffffffffff1673ffffffffffffffffffffffffffffffffffffffff1681526020019081526020016000209050858160010190816118539190612464565b50848160020190816118659190612464565b50818160000181905550838160030190816118809190612464565b5060008160040181905550868160050160006101000a81548173ffffffffffffffffffffffffffffffffffffffff021916908373ffffffffffffffffffffffffffffffffffffffff160217905550828160060190816118df9190612464565b506003879080600181540180825580915050600190039060005260206000200160009091909190916101000a81548173ffffffffffffffffffffffffffffffffffffffff021916908373ffffffffffffffffffffffffffffffffffffffff160217905550817fd297f12b256bb8485a6013fb5e302017018123e99a0ebb20756c09e1707b4b9087878785600401548c8960405161198196959493929190612761565b60405180910390a250505050505050565b6000600380549050905090565b6001816000016000828254019250508190555050565b600081600001549050919050565b6000604051905090565b600080fd5b600080fd5b600073ffffffffffffffffffffffffffffffffffffffff82169050919050565b6000611a02826119d7565b9050919050565b611a12816119f7565b8114611a1d57600080fd5b50565b600081359050611a2f81611a09565b92915050565b600080fd5b600080fd5b6000601f19601f8301169050919050565b7f4e487b7100000000000000000000000000000000000000000000000000000000600052604160045260246000fd5b611a8882611a3f565b810181811067ffffffffffffffff82111715611aa757611aa6611a50565b5b80604052505050565b6000611aba6119c3565b9050611ac68282611a7f565b919050565b600067ffffffffffffffff821115611ae657611ae5611a50565b5b611aef82611a3f565b9050602081019050919050565b82818337600083830152505050565b6000611b1e611b1984611acb565b611ab0565b905082815260208101848484011115611b3a57611b39611a3a565b5b611b45848285611afc565b509392505050565b600082601f830112611b6257611b61611a35565b5b8135611b72848260208601611b0b565b91505092915050565b60008060008060808587031215611b9557611b946119cd565b5b6000611ba387828801611a20565b945050602085013567ffffffffffffffff811115611bc457611bc36119d2565b5b611bd087828801611b4d565b935050604085013567ffffffffffffffff811115611bf157611bf06119d2565b5b611bfd87828801611b4d565b925050606085013567ffffffffffffffff811115611c1e57611c1d6119d2565b5b611c2a87828801611b4d565b91505092959194509250565b6000819050919050565b611c4981611c36565b82525050565b6000602082019050611c646000830184611c40565b92915050565b600060208284031215611c8057611c7f6119cd565b5b6000611c8e84828501611a20565b91505092915050565b600081519050919050565b600082825260208201905092915050565b60005b83811015611cd1578082015181840152602081019050611cb6565b60008484015250505050565b6000611ce882611c97565b611cf28185611ca2565b9350611d02818560208601611cb3565b611d0b81611a3f565b840191505092915050565b611d1f816119f7565b82525050565b600060e0820190508181036000830152611d3f818a611cdd565b90508181036020830152611d538189611cdd565b9050611d626040830188611c40565b8181036060830152611d748187611cdd565b9050611d836080830186611c40565b81810360a0830152611d958185611cdd565b9050611da460c0830184611d16565b98975050505050505050565b611db981611c36565b8114611dc457600080fd5b50565b600081359050611dd681611db0565b92915050565b600060208284031215611df257611df16119cd565b5b6000611e0084828501611dc7565b91505092915050565b6000602082019050611e1e6000830184611d16565b92915050565b60008060408385031215611e3b57611e3a6119cd565b5b6000611e4985828601611a20565b9250506020611e5a85828601611dc7565b9150509250929050565b600081519050919050565b600082825260208201905092915050565b6000819050602082019050919050565b611e99816119f7565b82525050565b6000611eab8383611e90565b60208301905092915050565b6000602082019050919050565b6000611ecf82611e64565b611ed98185611e6f565b9350611ee483611e80565b8060005b83811015611f15578151611efc8882611e9f565b9750611f0783611eb7565b925050600181019050611ee8565b5085935050505092915050565b60006020820190508181036000830152611f3c8184611ec4565b905092915050565b600060e082019050611f59600083018a611c40565b8181036020830152611f6b8189611cdd565b90508181036040830152611f7f8188611cdd565b90508181036060830152611f938187611cdd565b9050611fa26080830186611c40565b611faf60a0830185611d16565b81810360c0830152611fc18184611cdd565b905098975050505050505050565b60008115159050919050565b611fe481611fcf565b82525050565b600060e082019050611fff600083018a611c40565b81810360208301526120118189611cdd565b905081810360408301526120258188611cdd565b90506120346060830187611d16565b81810360808301526120468186611cdd565b905061205560a0830185611c40565b61206260c0830184611fdb565b98975050505050505050565b600061010082019050612084600083018b611c40565b8181036020830152612096818a611cdd565b905081810360408301526120aa8189611cdd565b90506120b96060830188611d16565b6120c66080830187611c40565b6120d360a0830186611fdb565b6120e060c0830185611c40565b81810360e08301526120f28184611cdd565b90509998505050505050505050565b600080600080600060a0868803121561211d5761211c6119cd565b5b600061212b88828901611a20565b955050602086013567ffffffffffffffff81111561214c5761214b6119d2565b5b61215888828901611b4d565b945050604086013567ffffffffffffffff811115612179576121786119d2565b5b61218588828901611b4d565b935050606086013567ffffffffffffffff8111156121a6576121a56119d2565b5b6121b288828901611b4d565b925050608086013567ffffffffffffffff8111156121d3576121d26119d2565b5b6121df88828901611b4d565b9150509295509295909350565b7f4f6e6c79206f7267616e697a65722063616e2063726561746520766f74657200600082015250565b6000612222601f83611ca2565b915061222d826121ec565b602082019050919050565b6000602082019050818103600083015261225181612215565b9050919050565b7f4e487b7100000000000000000000000000000000000000000000000000000000600052602260045260246000fd5b6000600282049050600182168061229f57607f821691505b6020821081036122b2576122b1612258565b5b50919050565b60008190508160005260206000209050919050565b60006020601f8301049050919050565b600082821b905092915050565b60006008830261231a7fffffffffffffffffffffffffffffffffffffffffffffffffffffffffffffffff826122dd565b61232486836122dd565b95508019841693508086168417925050509392505050565b6000819050919050565b600061236161235c61235784611c36565b61233c565b611c36565b9050919050565b6000819050919050565b61237b83612346565b61238f61238782612368565b8484546122ea565b825550505050565b600090565b6123a4612397565b6123af818484612372565b505050565b5b818110156123d3576123c860008261239c565b6001810190506123b5565b5050565b601f821115612418576123e9816122b8565b6123f2846122cd565b81016020851015612401578190505b61241561240d856122cd565b8301826123b4565b50505b505050565b600082821c905092915050565b600061243b6000198460080261241d565b1980831691505092915050565b6000612454838361242a565b9150826002028217905092915050565b61246d82611c97565b67ffffffffffffffff81111561248657612485611a50565b5b6124908254612287565b61249b8282856123d7565b600060209050601f8311600181146124ce57600084156124bc578287015190505b6124c68582612448565b86555061252e565b601f1984166124dc866122b8565b60005b82811015612504578489015182556001820191506020850194506020810190506124df565b86831015612521578489015161251d601f89168261242a565b8355505b6001600288020188555050505b505050505050565b600060e0820190508181036000830152612550818a611cdd565b905081810360208301526125648189611cdd565b90506125736040830188611d16565b6125806060830187611c40565b61258d6080830186611fdb565b61259a60a0830185611c40565b81810360c08301526125ac8184611cdd565b905098975050505050505050565b7f596f75206861766520616c726561647920766f74656400000000000000000000600082015250565b60006125f0601683611ca2565b91506125fb826125ba565b602082019050919050565b6000602082019050818103600083015261261f816125e3565b9050919050565b7f596f752068617665206e6f20726967687420746f20766f746500000000000000600082015250565b600061265c601983611ca2565b915061266782612626565b602082019050919050565b6000602082019050818103600083015261268b8161264f565b9050919050565b7f4e487b7100000000000000000000000000000000000000000000000000000000600052601160045260246000fd5b60006126cc82611c36565b91506126d783611c36565b92508282019050808211156126ef576126ee612692565b5b92915050565b7f4f6e6c792063616e206372656174652074686520766f74657273000000000000600082015250565b600061272b601a83611ca2565b9150612736826126f5565b602082019050919050565b6000602082019050818103600083015261275a8161271e565b9050919050565b600060c082019050818103600083015261277b8189611cdd565b9050818103602083015261278f8188611cdd565b905081810360408301526127a38187611cdd565b90506127b26060830186611c40565b6127bf6080830185611d16565b81810360a08301526127d18184611cdd565b905097965050505050505056fea264697066735822122071082ed79daad313b2b04b6a135b131a8f217e881a83a671dbc20536f5fb223564736f6c63430008120033",
  "linkReferences": {},
  "deployedLinkReferences": {}
}